:10000000A5C00000CBC00000C9C00000C7C00000F0
:10001000C5C00000C3C00000C1C00000BFC00000D8
:10002000BDC00000BBC00000B9C00000B7C00000E8
:10003000B5C00000B3C00000B1C00000AFC00000F8
:10004000AEC00000ABC00000FEC6000029C7000023
:10005000A5C00000A3C00000A1C000009FC0000018
:100060009DC000009BC0000007634236B79BD8A725
:100070001A39685618AEBAAB558C1D3CB7CC5763CD
:10008000BD6DEDFD753EF6177231BF000000803F7B
:1000900008000000BE922449123EABAAAA2ABECD97
:1000A000CCCC4C3E00000080BEABAAAAAA3E000009
:1000B0000000BF000000803F000000000008417801
:1000C000D3BB4387D1133D190E3CC3BD4282AD2B38
:1000D0003E68EC8276BED98FE1A93E4C80EFFFBE30
:1000E00001C4FF7F3F00000000000000000024006A
:1000F00027002A0000000000250028002B00000037
:10010000000023002600290004040404040404045D
:1001100002020202020203030303030301020408B2
:100120001020408001020408102001020408102061
:1001300000000008000201000003040700000000A6
:100140000000000038133C16F5079E1711241FBE4F
:10015000CFEFD8E0DEBFCDBF12E0A0E0B1E0E4EA2F
:10016000F9E302C005900D92A030B107D9F724E061
:10017000A0E0B2E001C01D92AD39B207E1F710E096
:10018000C5EAD0E004C02197FE010E943318C23AAC
:10019000D107C9F70E94460B0C94C61C31CF1F92A1
:1001A0000F9200905F000F9211248F939F93AF9353
:1001B000BF93CF93DF93CDB7DEB72A97DEBFCDBF16
:1001C0008091000290910102A0910202B09103027D
:1001D00089839A83AB83BC838091A5028D838981B7
:1001E0009A81AB81BC810196A11DB11D8E839F8335
:1001F000A887B9878D818D5F8A878A858D3778F04A
:100200008D818A578D8389819A81AB81BC810296C9
:10021000A11DB11D89839A83AB83BC830AC08A85E3
:100220008D838E819F81A885B98589839A83AB83CD
:10023000BC838D818093A50289819A81AB81BC8129
:100240008093000290930102A0930202B0930302F4
:100250008091A1029091A202A091A302B091A40268
:100260000196A11DB11D8093A1029093A202A093BB
:10027000A302B093A4022A960FB6F894DEBF0FBE75
:10028000CDBFDF91CF91BF91AF919F918F910F9093
:1002900000925F000F901F901895CF93DF9300D0CE
:1002A00000D01F92CDB7DEB780915F008983F894AC
:1002B0008091000290910102A0910202B09103028C
:1002C0008A839B83AC83BD83898180935F008A810D
:1002D0009B81AC81BD81BC01CD010F900F900F902F
:1002E0000F900F90DF91CF910895CF93DF9300D0BF
:1002F00000D000D0CDB7DEB780915F008D83F89439
:100300008091A1029091A202A091A302B091A402B7
:1003100089839A83AB83BC83809146008E838091CE
:1003200035008170882371F08E818F3F59F089816B
:100330009A81AB81BC810196A11DB11D89839A83ED
:10034000AB83BC838D8180935F0089819A81AB816F
:10035000BC812227382F492F5A2F8E81882F90E079
:10036000A0E0B0E0820F931FA41FB51F880F991F54
:10037000AA1FBB1F880F991FAA1FBB1FBC01CD015D
:1003800026960FB6F894DEBF0FBECDBFDF91CF919A
:100390000895EF92FF920F931F93CF93DF93CDB702
:1003A000DEB728970FB6F894DEBF0FBECDBF6D83C2
:1003B0007E838F83988799DFDC01CB0189839A83C1
:1003C000AB83BC8336C00E94371317C08D819E81DA
:1003D000AF81B8850197A109B1098D839E83AF8351
:1003E000B88789819A81AB81BC8188519C4FAF4F7E
:1003F000BF4F89839A83AB83BC838D819E81AF81FC
:10040000B885892B8A2B8B2BA1F06FDF9B01AC0168
:1004100089819A81AB81BC8179018A01E81AF90A44
:100420000A0B1B0BD801C701883E9340A105B105FB
:1004300068F68D819E81AF81B885892B8A2B8B2BA5
:1004400011F628960FB6F894DEBF0FBECDBFDF9130
:10045000CF911F910F91FF90EF900895CF93DF936D
:1004600000D0CDB7DEB79A83898389819A810297BC
:1004700098F089819A81880F991F880F991F9A8314
:10048000898389819A8105979A83898389819A8151
:100490000197F1F79A8389830F900F90DF91CF91A5
:1004A0000895CF93DF93CDB7DEB778948091440061
:1004B0008260809344008091440081608093440076
:1004C0008091450082608093450080914500816065
:1004D0008093450080916E00816080936E00109241
:1004E00081008091810082608093810080918100F1
:1004F0008160809381008091800081608093800082
:100500008091B10084608093B1008091B0008160DF
:100510008093B00080917A00846080937A0080910B
:100520007A00826080937A0080917A008160809363
:100530007A0080917A00806880937A001092C100DE
:10054000DF91CF910895CF93DF93CDB7DEB7679753
:100550000FB6F894DEBF0FBECDBF8E8B6F8B8E892A
:10056000882F90E09C01245E3E4F3A8329832981A5
:100570003A81F90124912B83885F9E4F9D838C8360
:100580008C819D81FC0184918E838E81882309F466
:1005900085C08E81882F90E09C01220F331FC901F6
:1005A00086519F4F98878F838F819885FC01459155
:1005B0005491CF015A87498798878F8389859A8577
:1005C0009C878B87C9018C509F4F9E878D878D8517
:1005D0009E85FC0125913491CF01388B2F879E8712
:1005E0008D878F8598899A8B898B8F89882309F5C8
:1005F00080915F008B8BF8948B859C85FC018081BA
:10060000982F8B81282F2095892F8223382F8B8537
:100610009C85FC01308389899A89FC018081822331
:10062000282F89899A89FC0120838B8980935F0018
:1006300035C08F89823001F580915F008C8BF894F2
:100640008B859C85FC018081982F8B8180958923E7
:10065000282F8B859C85FC01208389899A89FC0140
:1006600090818B81292F282B89899A89FC012083ED
:100670008C8980935F0012C080915F008D8BF8940D
:100680008B859C85FC0190818B81292F282B8B8564
:100690009C85FC0120838D8980935F0067960FB64F
:1006A000F894DEBF0FBECDBFDF91CF910895CF93F9
:1006B000DF931F92CDB7DEB789838981833071F0D4
:1006C000843028F48130B1F08230B1F026C0873018
:1006D000C9F08830E9F0843001F506C080918000CF
:1006E0008F778093800019C0809180008F7D8093E8
:1006F000800013C08ED011C0809144008F7D809304
:1007000044000BC08091B0008F778093B00005C08B
:100710008091B0008F7D8093B0000F90DF91CF91DA
:100720000895CF93DF93CDB7DEB762970FB6F894F5
:10073000DEBF0FBECDBF898B6A8B8989882F90E081
:100740009C01205D3E4F3A83298329813A81F9013A
:1007500024912B839C01245E3E4F3D832C832C816E
:100760003D81F90124912E83885F9E4F98878F8366
:100770008F819885FC01849189878985882309F474
:100780003FC08B81882311F08B8191DF8985882F71
:1007900090E0880F991F8C509F4F9B878A878A858E
:1007A0009B85FC0125913491CF013D872C879B8748
:1007B0008A878C859D859F878E8780915F00888B37
:1007C000F8948A89882371F48E859F85FC01808145
:1007D000982F8E8180958923282F8E859F85FC01F7
:1007E00020830BC08E859F85FC0190818E81292FEF
:1007F000282B8E859F85FC012083888980935F004C
:1008000062960FB6F894DEBF0FBECDBFDF91CF91D9
:100810000895CF93DF93CDB7DEB7809144008F77F3
:1008200080934400DF91CF910895CF93DF93CDB7AC
:10083000DEB780E090E0892B29F05FD3882321F494
:1008400080E003C080E001C081E0882311F00E94B5
:100850000000DF91CF910895CF93DF9300D01F92D6
:10086000CDB7DEB79B838A838A819B81FC01848D0F
:10087000882F90E02A813B81820F931F835A9F4FDC
:10088000FC01808189838A819B81FC01848D882F72
:1008900090E001968F739078992324F40197806CEF
:1008A0009F6F0196282F8A819B81FC01248F8A816A
:1008B0009B81FC01868997892981FC0120838A819B
:1008C0009B81FC0180899189FC0120812064FC01CD
:1008D00020838A819B81FC01238D8A819B81FC017D
:1008E000848D281719F48A819B81C2D10F900F90B3
:1008F0000F90DF91CF910895CF93DF93CDB7DEB7FF
:1009000061970FB6F894DEBF0FBECDBF9C838B837B
:100910004D835E836F837887298780E099E0ADE31C
:10092000B0E02D813E814F815885BC01CD010E94F0
:10093000E517DA01C9010197A109B109B695A79593
:10094000979587959A8389838B819C81FC01808907
:10095000918922E0FC0120838D819E81AF81B88541
:100960008115914EA105B10529F089819A818115E2
:100970009041F0F08B819C81FC0180899189FC0180
:10098000108280E894E8AEE1B0E02D813E814F8195
:100990005885BC01CD010E94E517DA01C901019714
:1009A000A109B109B695A795979587959A838983EB
:1009B0008B819C81FC018485958529813A81232F37
:1009C0003327FC0120838B819C81FC0186859785E0
:1009D0002981FC0120838B819C81FC01108E8B81FD
:1009E0009C81FC01848995892985FC0120838B8168
:1009F0009C81FC0182899389FC0120812061FC019A
:100A000020838B819C81FC0182899389FC01208158
:100A10002860FC0120838B819C81FC018289938961
:100A2000FC0120812068FC0120838B819C81FC01DA
:100A300082899389FC0120812F7DFC0120836196AE
:100A40000FB6F894DEBF0FBECDBFDF91CF910895F2
:100A5000CF93DF9300D0CDB7DEB79A8389838981A6
:100A60009A81FC01818D882F90E09C01205C3F4F92
:100A700089819A81FC01828D882F90E0A901481B11
:100A8000590BCA018F7399270F900F90DF91CF9167
:100A90000895CF93DF9300D0CDB7DEB79A838983D3
:100AA00089819A81FC01218D89819A81FC01828D45
:100AB000281781F089819A81FC01828D882F90E02E
:100AC00029813A81820F931F4D96FC018081882FE6
:100AD00090E002C08FEF9FEF0F900F90DF91CF91CA
:100AE0000895CF93DF9300D01F92CDB7DEB79B83DD
:100AF0008A838A819B81FC01218D8A819B81FC01F3
:100B0000828D2817E9F08A819B81FC01828D882FD4
:100B100090E02A813B81820F931F4D96FC018081DA
:100B200089838A819B81FC01828D8F5F282F2F739F
:100B30008A819B81FC01228F8981882F90E002C0ED
:100B40008FEF9FEF0F900F900F90DF91CF9108954F
:100B5000CF93DF9300D000D0CDB7DEB79C838B83DB
:100B60008B819C81FC01838D89838B819C81FC011D
:100B7000848D8A8399818A81981768F08981882F6A
:100B800090E02FE330E0281B390B8A81882F90E01A
:100B9000820F931F0BC08A81282F30E08981882F14
:100BA00090E0A901481B590BCA0101970F900F90C3
:100BB0000F900F90DF91CF910895CF93DF9300D0E6
:100BC000CDB7DEB79A83898389819A81FC01808DB4
:100BD000882319F089819A8161D00F900F90DF915D
:100BE000CF910895CF93DF9300D01F92CDB7DEB79A
:100BF0009A8389836B8389819A8121E0FC01208F0C
:100C000089819A81FC01238D89819A81FC01848DDF
:100C1000281751F489819A81FC0180899189FC010E
:100C200080818072882311F480E001C081E08823F4
:100C300099F089819A81FC01868997892B81FC0131
:100C4000208389819A81FC0180899189FC0120811E
:100C50002064FC01208304C089819A816B8161D06A
:100C600081E090E00F900F900F90DF91CF91089569
:100C7000CF93DF9300D0CDB7DEB79A838983898184
:100C80009A81FC0182899389FC0120812F7DFC01DE
:100C900020830F900F90DF91CF910895CF93DF9332
:100CA00000D0CDB7DEB79A8389831BC020915F0047
:100CB00022232CF0FC0180818072882311F480E0D3
:100CC00001C081E0882369F089819A81FC018089D3
:100CD0009189FC0180818072882319F089819A8131
:100CE000BBDD89819A81FC0182899389FC01208185
:100CF0002072222361F429813A81F9012089318906
:100D0000F90120812074222321F020E003C021E09A
:100D100001C021E0222351F60F900F90DF91CF9177
:100D20000895CF93DF9300D000D0CDB7DEB79B837B
:100D30008A836C838A819B81FC01838D882F90E05C
:100D400001968F739078992324F40197806C9F6F9C
:100D50000196898311C080915F0088236CF08A819D
:100D60009B81FC0180899189FC01808180728823AC
:100D700019F08A819B8170DD8A819B81FC01848DC1
:100D80009981981741F38A819B81FC01838D882F7B
:100D900090E02A813B81820F931F835A9F4F2C81C1
:100DA000FC0120838A819B812981FC01238F8A8118
:100DB0009B81FC0182899389FC0120812062FC01D6
:100DC00020830F900F900F900F90DF91CF91089597
:100DD000CF93DF9300D0CDB7DEB79A83898380E0CD
:100DE00090E00F900F90DF91CF910895CF93DF9314
:100DF00000D0CDB7DEB79A8389830F900F90DF9133
:100E0000CF910895CF93DF9300D0CDB7DEB79A830B
:100E1000898389819A81FC0180899189FC01808183
:100E20008470882321F489819A81EBD007C089815D
:100E30009A81FC0186899789FC0180810F900F902F
:100E4000DF91CF9108951F920F9200905F000F9253
:100E500011242F933F934F935F936F937F938F93BF
:100E60009F93AF93BF93EF93FF93CF93DF93CDB750
:100E7000DEB784E092E0C6DFDF91CF91FF91EF9182
:100E8000BF91AF919F918F917F916F915F914F91A2
:100E90003F912F910F9000925F000F901F90189537
:100EA0001F920F9200905F000F9211242F933F9397
:100EB0004F935F936F937F938F939F93AF93BF9362
:100EC000EF93FF93CF93DF93CDB7DEB784E092E04B
:100ED000C3DCDF91CF91FF91EF91BF91AF919F91D3
:100EE0008F917F916F915F914F913F912F910F90D3
:100EF00000925F000F901F901895CF93DF93CDB7AE
:100F0000DEB784E092E0A4DD21E0892B09F420E043
:100F1000822FDF91CF910895CF93DF9300D000D03F
:100F2000CDB7DEB79A8389837C836B8389819A816D
:100F3000019709F053C08B819C81019609F04EC046
:100F400085E491E0909305028093040210920702D9
:100F50001092060280E391E09093050280930402D0
:100F600088EE93E0A0E0B0E080930802909309023D
:100F7000A0930A02B0930B028EE191E090930502D8
:100F80008093040285EC90E090931102809310020C
:100F900084EC90E0909313028093120280EC90E036
:100FA000909315028093140281EC90E090931702C5
:100FB0008093160282EC90E09093190280931802BD
:100FC00086EC90E090931B0280931A0210921D020F
:100FD00010921E0210921F02109220020F900F908A
:100FE0000F900F90DF91CF910895CF93DF93CDB7FE
:100FF000DEB76FEF7FEF81E090E08EDFDF91CF9182
:101000000895CF93DF9300D000D0CDB7DEB79C8397
:101010008B838B819C81FC0186899789FC0180816F
:1010200089838B819C81FC01818D8F5F8F738A8383
:101030008B819C81FC01828D9A81981799F08B811C
:101040009C81FC01818D882F90E02B813C81820F57
:10105000931F4D962981FC0120838B819C812A81DD
:10106000FC01218F0F900F900F900F90DF91CF9187
:1010700008950F931F93CF93DF9300D000D0CDB787
:10108000DEB79A8389837C836B838B819C81892BD8
:10109000A9F089819A81FC0180819181FC01028102
:1010A00013818B819C810E94A617AC012B813C810E
:1010B00089819A81B901F801099502C080E090E028
:1010C0000F900F900F900F90DF91CF911F910F9184
:1010D0000895CF93DF93CDB7DEB72C970FB6F89472
:1010E000DEBF0FBECDBF98878F837A8769875C8705
:1010F0004B871A82198225C08F819885FC018081D7
:101100009181FC012081318189859A8501969E8398
:101110008D8389859A85FC0140818F819885642F14
:10112000F9010995892BB1F089819A8101969A83F9
:1011300089838B819C819C878B878D819E819A87F7
:1011400089878B859C8501979C838B838B859C8568
:10115000892B91F689819A812C960FB6F894DEBF7F
:101160000FBECDBFDF91CF910895CF93DF9300D015
:1011700000D0CDB7DEB79A8389837C836B832B81C4
:101180003C8189819A81B90174DF0F900F900F9093
:101190000F90DF91CF910895CF93DF9300D01F92EE
:1011A000CDB7DEB79A8389836B8389819A81FC01ED
:1011B00080819181FC01208131814B8189819A81DB
:1011C000642FF90109950F900F900F90DF91CF9147
:1011D0000895CF93DF9300D000D01F92CDB7DEB734
:1011E0009A8389836B835D834C838B81882F90E006
:1011F000A0E0B0E02C813D81E981FA81AC01BD0124
:10120000CF01A9D00F900F900F900F900F90DF910A
:10121000CF910895CF93DF9300D000D000D0CDB709
:10122000DEB79A8389837C836B835E834D838B8156
:101230009C81092E000CAA0BBB0B2D813E81E981FC
:10124000FA81AC01BD01CF012CD026960FB6F894DF
:10125000DEBF0FBECDBFDF91CF910895CF93DF9357
:1012600000D000D000D0CDB7DEB79A8389837C83CD
:101270006B835E834D838B819C81CC01A0E0B0E0C9
:101280002D813E81E981FA81AC01BD01CF0163D09E
:1012900026960FB6F894DEBF0FBECDBFDF91CF917B
:1012A0000895CF93DF93CDB7DEB728970FB6F894A4
:1012B000DEBF0FBECDBF9A8389834B835C836D8372
:1012C0007E8338872F838F819885892B79F4898154
:1012D0009A81FC0180819181FC01208131814B81C7
:1012E00089819A81642FF90109952CC08F81988595
:1012F0000A97E9F48B819C81AD81BE81BB235CF4AC
:101300008B819C81AD81BE8129813A81AC01BD0177
:10131000C90142D117C08B819C81AD81BE81E98119
:10132000FA812AE0AC01BD01CF01B6D00BC02F81FC
:101330008B819C81AD81BE81E981FA81AC01BD01C7
:10134000CF01AAD028960FB6F894DEBF0FBECDBF4E
:10135000DF91CF910895CF93DF93CDB7DEB7289774
:101360000FB6F894DEBF0FBECDBF9A8389834B833F
:101370005C836D837E8338872F838F819885892B4B
:1013800059F48B819C81AD81BE8129813A81AC0168
:10139000BD01C9013CD10BC02F818B819C81AD81E6
:1013A000BE81E981FA81AC01BD01CF0175D02896DB
:1013B0000FB6F894DEBF0FBECDBFDF91CF91089579
:1013C000CF93DF9300D0CDB7DEB79A83898389812D
:1013D0009A816EE371E04DDE0F900F90DF91CF9117
:1013E00008950F931F93CF93DF9300D000D000D0C8
:1013F000CDB7DEB79C838B837E836D832D813E8149
:101400008B819C81B90135DE8C018B819C81D8DF79
:10141000800F911F9A83898389819A8126960FB6BE
:10142000F894DEBF0FBECDBFDF91CF911F910F911A
:1014300008950F931F93CF93DF93CDB7DEB7279710
:101440000FB6F894DEBF0FBECDBF9C838B836D8338
:101450005F834E838D81882F90E0A0E0B0E02E81E5
:101460003F81EB81FC81AC01BD01CF0174DF8C01B8
:101470008B819C81A5DF800F911F9A83898389814D
:101480009A8127960FB6F894DEBF0FBECDBFDF91CD
:10149000CF911F910F910895AF92BF92CF92DF929B
:1014A000EF92FF920F931F93CF93DF93CDB7DEB7E9
:1014B000E3970FB6F894DEBF0FBECDBF9EA38DA3FA
:1014C0004FA358A769A77AA72BA71CA28BA5823088
:1014D00040F4CE01049680969A8389838AE08BA794
:1014E00005C0CE01049680969A8389838BA5E82E49
:1014F000F12C00E010E08FA198A5A9A5BAA5BC0128
:10150000CD01A80197010E94E517DC01CB015C0128
:101510006D01AB828FA198A5A9A5BAA5BC01CD018B
:10152000A80197010E94E517DA01C9018FA398A7C6
:10153000A9A7BAA789819A8101979A8389838B8108
:101540008A3024F48A2D805D282F03C08A2D895C7F
:10155000282F89819A81FC0120838FA198A5A9A5B4
:10156000BAA5892B8A2B8B2B09F629813A818DA16B
:101570009EA1B9017EDDE3960FB6F894DEBF0FBEE3
:10158000CDBFDF91CF911F910F91FF90EF90DF9032
:10159000CF90BF90AF9008950F931F93CF93DF9399
:1015A00000D000D000D0CDB7DEB79A8389834B83BB
:1015B0005C836D837E8389819A816DE2EDDD8C0190
:1015C0008B819C81AD81BE81B095A09590958195D0
:1015D0009F4FAF4FBF4F8B839C83AD83BE838B8167
:1015E0009C81AD81BE81E981FA812AE0AC01BD0117
:1015F000CF0152DF800F911F26960FB6F894DEBF01
:101600000FBECDBFDF91CF911F910F910895CF9362
:10161000DF9300D000D000D0CDB7DEB79A838983A6
:101620004B835C836D837E8389819A81FC018081F9
:101630009181FC01208131814B8189819A81642FC4
:10164000F901099526960FB6F894DEBF0FBECDBFFF
:10165000DF91CF910895CF93DF93CDB7DEB70E948E
:10166000A217CF93DF9300D0CDB7DEB79A838983DB
:1016700080E090E00F900F90DF91CF910895CF938D
:10168000DF93CDB7DEB7DF91CF910895CF93DF938E
:10169000CDB7DEB70E945102F2DF0E9451170E94BF
:1016A000B016C3D8FCCFCF93DF9300D0CDB7DEB751
:1016B0009A83898389819A810E94081C0F900F90D8
:1016C000DF91CF9108952F923F924F925F926F9248
:1016D0007F928F92AF92CF92DF92EF92FF920F9311
:1016E0001F93CF93DF9300D0CDB7DEB73C015A8371
:1016F0004983F22ED02E00E010E01B01770F440842
:10170000550889819A8108171907CCF42E2D4D2D83
:101710006F2DC301D3D0C301CCD0C201B1010E944F
:10172000C901282D4A2D6C2DC301C8D0C301C1D0D9
:10173000C201B1010E94C9010F5F1F4FE2CF0F909C
:101740000F90DF91CF911F910F91FF90EF90DF905D
:10175000CF90AF908F907F906F905F904F903F9021
:101760002F900895FC01858596850895CF93DF938A
:1017700000D000D000D0CDB7DEB7AB011C821D82F7
:101780001E82DC01ED91FC910190F081E02D198227
:101790001A821B829E012F5F3F4FBE016C5F7F4FFD
:1017A000099526960FB6F894DEBF0FBECDBFDF9128
:1017B000CF91089580E991E00895229A0895CF93FA
:1017C000DF93EC0181E591E0998388838885998591
:1017D0000E94081C8A859B85DF91CF910C94081C80
:1017E000CF93DF93EC01EBDFCE01DF91CF915BCFA5
:1017F000FC0181E591E0918380831582148213823C
:101800001282178216821186108613861286089518
:10181000DC011296ED91FC91139714962D913C9159
:10182000159740FF14C0CF010197DC01A61BB70B31
:1018300021503109241B350B2E9FA0012F9F500DE5
:101840003E9F500D1124CD01840F951F0895215006
:101850003109241B350B2E9FC0012F9F900D3E9FF9
:10186000900D1124860F971F0895CF92DF92EF926B
:101870000F93CF93DF931F92CDB7DEB76C0129830F
:10188000C7DFFC01EE0FFF1FE80FF91FD601189606
:101890008D919C911997E80FF91F2981208301836D
:1018A000E2820F90DF91CF910F91EF90DF90CF9078
:1018B00008956091CF028FEC92E049C60F931F9379
:1018C000CF93DF93C0E0D0E0A0E0B0E0FC01068160
:1018D0001781A017B10760F4FC0100851185F8019C
:1018E000EC0FFD1F60834183228311962396EECF78
:1018F000DF91CF911F910F910895CF92DF92EF92D8
:10190000FF920F931F93CF93DF9300D01F92CDB719
:10191000DEB78C0181E591E0F801918380835583E6
:10192000448373836283469F7001479FF00C569FE8
:10193000F00C1124F782E6826701CC0CDD1C222317
:10194000C9F0C6018E0D9F1D0E94731BF80193877D
:1019500082872981211109C02A8161E0211106C0F5
:101960002B81211103C060E001C061E070E0A7019C
:101970000E94A91CC6018E0D9F1D0E94731BF801B9
:10198000918780872981211109C02A8161E0211175
:1019900006C02B81211103C060E001C061E070E04E
:1019A000A7010E94A91C20E040E060E0C80186DF9A
:1019B000F80146815781608571858091B802811157
:1019C00045C01092AA021092A9028FEF8093AD0237
:1019D0008093AE028093AF028093B0028093B102F5
:1019E0008093B20281E08093B3021092B50210920C
:1019F000B4021092AC021092AB028091CD02909191
:101A0000CE02892B31F487EA92E09093CE02809344
:101A1000CD02E091CB02F091CC02309721F087EA21
:101A200092E09583848387EA92E09093CC0280933E
:101A3000CB021092B7021092B60289E591E0909322
:101A4000A8028093A70281E08093B80220E030E0F2
:101A500087EA92E00F900F900F90DF91CF911F9146
:101A60000F91FF90EF90DF90CF90C1C42F923F92E3
:101A70004F925F926F927F928F929F92AF92BF929E
:101A8000CF92DF92EF92FF920F931F93CF93DF934A
:101A9000CDB7DEB764970FB6F894DEBF0FBECDBFEB
:101AA0008C01E62EF42EDC0112966D917C91139739
:101AB0006150710980E090E00E94721920E030E0EE
:101AC00040E05FE30E94DE1A2B013C01F8016481D3
:101AD0007581CB010197BC0180E090E00E947219F2
:101AE00020E030E040E05FE30E94DE1A69837A8301
:101AF0008B839C836E2D70E080E090E00E947219D1
:101B00006D837E838F8398876F2D70E080E090E0F7
:101B10000E9474192D813E814F8158850E94AD1815
:101B20000E946B1A6B017C0129813A814B815C8197
:101B3000C301B2010E9449189B01AC01C701B60163
:101B40000E94AD186B877C878D879E871C8A2C89A5
:101B5000222E312CD80112968D919C911397281624
:101B6000390608F083C01B8AC101032C000CAA0BA4
:101B7000BB0B8F87988BA98BBA8BBB89AB2FB0E03F
:101B8000BA87A987F80184819581A817B90708F059
:101B900069C06F85788989899A890E9474199B0127
:101BA000AC01C301B2010E9448186B017C0120E026
:101BB00030E0A9010E94251A181624F0F7FAF094D3
:101BC000F7F8F094FB896F2F70E080E090E00E94BE
:101BD00074199B01AC0169817A818B819C810E947F
:101BE00048184B015C0120E030E0A9010E94251A51
:101BF000181624F0B7FAB094B7F8B094A501940180
:101C0000C701B6010E9449189B01AC016B857C8518
:101C10008D859E850E94DE1A0E941A199B01AC01D7
:101C20006D817E818F8198850E94DE1A0E944619FF
:101C3000F62E49855A85B101C801EADD9C01220FC3
:101C4000331F820F931FD8011A962D913C911B9739
:101C5000F901E80FF91F1082F182F282BB89BF5FA0
:101C6000BB8B8BCFFC89FF5FFC8B71CF64960FB66B
:101C7000F894DEBF0FBECDBFDF91CF911F910F91C2
:101C8000FF90EF90DF90CF90BF90AF909F908F909C
:101C90007F906F905F904F903F902F900895FC0140
:101CA00046815781CA01880F991F480F591F6285C5
:101CB0007385808591850C94A01C9F92AF92BF92F2
:101CC000CF92DF92EF92FF920F931F93CF93DF9308
:101CD000FC01C080D18025B12460B22E95B19B7FDC
:101CE00095B962858781062F081B802F078377852A
:101CF000A281B38135854485568599249394930EAA
:101D00004F5F5F5FF680E084C185D385F601118166
:101D1000A12C0A2D2A2D3A2D3181112788943111B9
:101D2000380F08F43FEF8195889490FC130F1795B6
:101D3000889491FC130F1795889492FC130F1795B4
:101D4000889493FC130F1795889494FC130F1795A0
:101D5000889495FC130F1795889496FC130F17958C
:101D6000889497FC130F17958894032F9110012FD7
:101D7000860F102F002CB5B800C017FF95B9308121
:101D80000027889400C000C0002C95B931113F0D88
:101D900000C0002CB5B800C016FF95B908F43FEF9D
:101DA000F194889400C000C0002C95B940FD030F49
:101DB00000C0002CB5B800C015FF95B907958894F0
:101DC00041FD030F00C000C0002C95B90795889411
:101DD00000C0002CB5B800C014FF95B942FD030F38
:101DE0000795889400C000C0002C95B943FD030FEF
:101DF00000C0002CB5B800C013FF95B907958894B2
:101E000044FD030F00C000C0002C95B907958894CD
:101E100000C0002CB5B800C012FF95B945FD030FF6
:101E20000795889400C000C0002C95B946FD030FAB
:101E300000C0002CB5B800C011FF95B90795889473
:101E400047FD030F00C000C0002C95B9079588948A
:101E500000C0002CB5B800C010FF95B9132F411178
:101E6000102FFC0E00C000C0002C95B900C000C0AF
:101E7000002CB5B800C017FF95B9328100278894AF
:101E800000C000C0002C95B931113E0D00C0002CDF
:101E9000B5B800C016FF95B908F43FEFE70FF11D84
:101EA00000C000C0002C95B950FD030F00C0002CED
:101EB000B5B800C015FF95B90795889451FD030F7B
:101EC00000C000C0002C95B90795889400C0002C74
:101ED000B5B800C014FF95B952FD030F079588945B
:101EE00000C000C0002C95B953FD030F00C0002CAA
:101EF000B5B800C013FF95B90795889454FD030F3A
:101F000000C000C0002C95B90795889400C0002C33
:101F1000B5B800C012FF95B955FD030F0795889419
:101F200000C000C0002C95B956FD030F00C0002C66
:101F3000B5B800C011FF95B90795889457FD030FF8
:101F400000C000C0002C95B90795889400C0002CF3
:101F5000B5B800C010FF95B9132F5111102FE1949F
:101F600000C000C0002C95B9ED0E00C000C0B5B88F
:101F700000C017FF95B931810027889400C000C0C8
:101F8000002C95B93111380F00C0002CB5B800C035
:101F900016FF95B908F43FEF8195889400C000C002
:101FA000002C95B990FC030F00C0002CB5B800C000
:101FB00015FF95B90795889491FC030F00C000C0E8
:101FC000002C95B90795889400C0002CB5B800C0C6
:101FD00014FF95B992FC030F0795889400C000C0C8
:101FE000002C95B993FC030F00C0002CB5B800C0BD
:101FF00013FF95B90795889494FC030F00C000C0A7
:10200000002C95B90795889400C0002CB5B800C085
:1020100012FF95B995FC030F0795889400C000C086
:10202000002C95B996FC030F00C0002CB5B800C079
:1020300011FF95B90795889497FC030F00C000C065
:10204000002C95B90795889400C0002CB5B800C045
:1020500010FF95B9132F9110102F860F00C000C0EC
:10206000002C95B9119709F086CEDF91CF911F9181
:102070000F91FF90EF90DF90CF90BF90AF909F9027
:1020800008950F931F93CF93DF93EC018B010E9470
:1020900075012F853889621B730B6A307105B8F39F
:1020A000F894C8010ADED8011296ED91FC911397BD
:1020B00020EE31E0DF01C7D7AB01BC01A4E076958B
:1020C000679557954795AA95D1F780E090E09C01D8
:1020D000AAE9EA9F0E0E211DFA9F200D311D112441
:1020E0002F0F311D420F531F611D711D493EB3E07B
:1020F0005B076105710508F434C0485E534061090F
:10210000710922E076956795579547952A95D1F7FD
:1021100027E0429F040E811D529F800D911D1124C6
:10212000850F911D2091C00230E0420F531F480FD0
:10213000591F8091000290910102A0910202B0917A
:102140000302252F3327820F931FA11DB11D8093FA
:10215000000290930102A0930202B0930302409305
:10216000C00278940E947501788B6F87DF91CF91C0
:102170001F910F910895FC01118A108A0895EF9222
:10218000FF920F931F93CF93DF93EC019091A602E0
:102190009F5F292F27702093A60290FF02C090E82E
:1021A00001C090E021FD9064247009F0906220E16C
:1021B000290FFE013C967E018FE0E80EF11C00E045
:1021C00011E06191662329F070E0C801EBD66F5FE2
:1021D00001C060E0DF0114976C93322F369F030E2D
:1021E00030E0311D1124CF010797311103C0EC01FC
:1021F000188203C03150EC013883662311F061501E
:102200006C93EE15FF05E9F6DF91CF911F910F91C9
:10221000FF90EF900895EF92FF920F931F93CF934B
:10222000DF93CDB7DEB762970FB6F894DEBF0FBE6F
:10223000CDBF8C017A01F901DC011C968C917A8367
:1022400069835C834B835E834D8390819D879181FD
:102250009E8792819F87813021F4CE0101968FDF86
:1022600006C01C861B861A86198618861F82188A45
:10227000B701CE0101967FDFD801ED91FC91048476
:10228000F585E02DBE016F5F7F4FC801099562960D
:102290000FB6F894DEBF0FBECDBFDF91CF911F9177
:1022A0000F91FF90EF900895EF92FF920F931F937D
:1022B000CF93DF93CDB7DEB762970FB6F894DEBF4A
:1022C0000FBECDBF8C017A01F901DC011C968C9107
:1022D0007A8369835C834B835E834D8390819D8782
:1022E00091819E8792819F87813021F4CE01019652
:1022F00046DF06C01C861B861A86198618861F8232
:1023000083E0888BB701CE01019635DFD801ED91CE
:10231000FC910484F585E02DBE016F5F7F4FC801FD
:10232000099562960FB6F894DEBF0FBECDBFDF9160
:10233000CF911F910F91FF90EF9008954F925F9270
:102340006F927F92AF92BF92CF92DF92EF92FF9205
:102350000F931F93CF93DF93FC011082118212829F
:102360004423A9F18B01075F1F4F5C01EB012C9601
:10237000442E512C612C712CD8011397CC90D8018C
:102380002D918D01CC20E9F02223D9F0822F90E00D
:10239000A0E0B0E09C01AD012F5F3F4F4F4F5F4F7A
:1023A000C301B201DCD59B01AC01D12CE12CF12C95
:1023B000C701B6016F5F7F4F8F4F9F4FD0D5D501BB
:1023C0008C93BFEFAB1ABB0A0C171D07A9F6CF0100
:1023D000DF91CF911F910F91FF90EF90DF90CF9001
:1023E000BF90AF907F906F905F904F900895CF9285
:1023F000DF92EF92FF920F931F93CF93DF938C01A5
:102400006B01EA017901121613061CF07A01C0E093
:10241000D0E0D801ED91FC910480F581E02DC80158
:102420000995BE01660F771FC60FD71FB6016C0F47
:102430007D1FF80173836283F686E5860190F08143
:10244000E02D0284F385E02DC8010995009709F17C
:102450009C0140E050E060E472E48FE090E0D7D56A
:10246000C090D202D090D302E090D402F090D50276
:10247000C901DA018C159D05AE05BF0510F4D70121
:10248000C6018093D2029093D302A093D402B0935A
:10249000D502C801DF91CF911F910F91FF90EF906E
:1024A000DF90CF900895CF92DF92EF92FF920F933B
:1024B0001F93CF93DF932091C5023091C602A901EB
:1024C0004F5F5F4F5093C6024093C50226173707F0
:1024D000ACF1EC010E944D018B019C01E091C50221
:1024E000F091C60288EE93E0E89FB001E99F700D7D
:1024F000F89F700D1124072E000C880B990BC090CB
:10250000C102D090C202E090C302F090C402A901BF
:1025100098012C193D094E095F0957D53A83298343
:102520001092C6021092C5020E944D016093C10232
:102530007093C2028093C3029093C402DF91CF9143
:102540001F910F91FF90EF90DF90CF900895AF9281
:10255000BF92CF92DF92EF92FF920F931F93CF9390
:10256000DF9300D01F92CDB7DEB77C01D62EF701E6
:1025700083819481A581B681892B8A2B8B2BD1F005
:102580000E9475010091C7021091C8022091C902F2
:102590003091CA02DC01CB01801B910BA20BB30B63
:1025A000F701038114812581368180179107A207E5
:1025B000B307E8F20E9475016093C7027093C802E6
:1025C0008093C9029093CA02D7011B96ED91FC91AA
:1025D0001C97309751F0D70117964D915D916D91F1
:1025E0007C911A978D2D0995D82E0091CD021091CE
:1025F000CE020115110549F1F801C484D7011196E5
:102600008D919C9112978436910508F41486D80117
:10261000ED91FC91A280B3804D2DB801CE010196C1
:102620008DDEF80145855685628173819E012F5F9D
:102630003F4FC801F5010995D8011C96CC921C9713
:1026400014960D911C911597D4CF69E170E0C701E4
:102650002ADF0F900F900F90DF91CF911F910F9174
:10266000FF90EF90DF90CF90BF90AF9008950895C6
:10267000EFECF2E08FEF80831282118214861386D2
:102680008FEF9FEFDC0187839087A187B287089542
:10269000CF93DF93EC0160E08E810E94910381E093
:1026A00090E00E942E0261E08E810E94910381E001
:1026B00090E00E942E0260E08E810E94910384E6E9
:1026C00090E0DF91CF910C942E02CF92DF92EF92A7
:1026D000FF920F931F93CF93DF937C016C0187E0F0
:1026E000C80ED11CC0E0D0E0062F10E0B8010C2EBF
:1026F00002C0759567950A94E2F76170F6018191C1
:102700006F010E9491032196C430D10579F7C7016A
:10271000DF91CF911F910F91FF90EF90DF90CF90BD
:10272000B7CFCF92DF92EF92FF920F931F93CF9389
:10273000DF937C016C0187E0C80ED11CC0E0D0E0C3
:10274000062F10E0B8010C2E02C0759567950A940B
:10275000E2F76170F60181916F010E949103219669
:10276000C830D10579F7C701DF91CF911F910F9143
:10277000FF90EF90DF90CF908BCF1F93CF93DF939D
:10278000EC01162F642F8C810E9491038D818F3F65
:1027900019F060E00E9491038F85612F84FF05C0CE
:1027A000CE01DF91CF911F91BCCF70E084E0759591
:1027B00067958A95E1F7CE0188DF612FCE01DF9121
:1027C000CF911F9182CF40E0D8CF61E0FCDF80ED58
:1027D00097E00C942E02FC01443008F043E083891A
:1027E000481710F04FEF480FDF01A40FB11D5496AA
:1027F0009C91690F6068CF01E6CFFC016089262FAC
:102800002460208B6C60DFCFEF92FF920F931F93B9
:10281000CF93DF93EC01423018F08F8588608F876B
:102820004B8B1C8A80E48D8B6E8B70E0605C7F4FDD
:102830006F8B222329F0413019F48F8584608F87B4
:1028400061E08C810E94A3028D818F3F19F061E0CD
:102850000E94A30261E08E810E94A3027E0187E0B4
:10286000E80EF11C00E010E08F8584FD03C084E0D9
:1028700090E002C088E090E0081719074CF461E08E
:10288000F70181917F010E94A3020F5F1F4FECCFE0
:1028900080E593EC0E942E0260E08C810E949103FF
:1028A00060E08E810E9491038D818F3F19F060E07E
:1028B0000E9491036F8564FD19C063E0CE0105DFBE
:1028C00084E991E10E942E0263E0CE01FEDE84E9FC
:1028D00091E10E942E0263E0CE01F7DE86E990E0EE
:1028E0000E942E0262E0CE01F0DE13C06062CE01D3
:1028F0006ADF84E991E10E942E026F856062CE0159
:1029000062DF86E990E00E942E026F856062CE0150
:102910005ADF6F856062CE0156DF84E0888BCE017E
:102920006CDFCE0152DF82E0898B66E0CE01DF9161
:10293000CF911F910F91FF90EF9045CFCF92EF92E3
:102940000F93FC01138212828BE691E091838083C6
:1029500064838FEF8583468327830087E186C28661
:102960001386148615861686178620E041E060E1FE
:10297000CF010F91EF90CF9047CF41E0FEDE81E095
:1029800090E008950F931F93CF93DF9380910601FA
:1029900090910701A0917004B091710465E078E016
:1029A000869F9001879F300D969F300D1124275EE2
:1029B000394C432F420F89E0489FA0011124452F35
:1029C000550F550B269FC001279F900D369F900DE8
:1029D0001124875E994C292F280FE9E02E9F900142
:1029E0001124232F330F330BE0EEF2E0C0E0D0E0F0
:1029F000CA17DB076CF4008111810417150729F44D
:102A0000028113810217130759F221963496F0CFF1
:102A100090930701809306015093DD024093DC02FE
:102A20003093DF022093DE02DF91CF911F910F914F
:102A3000089581E894E0C9DE40E060E081E894E038
:102A4000CADE6FE671E081E894E00E94B50860910B
:102A50007004709171044AE050E081E894E00E94B3
:102A60000A0941E060E081E894E0B5DE64EA71E0E3
:102A700081E894E00E94B50880E090E071D74AE0D8
:102A800050E0682F81E894E00C94E90884E090E03D
:102A900090937104809370041092800410927F04CC
:102AA00080E1EAE0F1E0A0EEB2E001900D928A95BB
:102AB000E1F768DF81E0809372040895CF93DF939C
:102AC0008091700490917104813091400CF05DC050
:102AD0006BE771E084E092E00E94F109C09170041C
:102AE00068E971E084E092E00E94B5084AE050E0B5
:102AF0006C2F84E092E00E94190A80E090E030D7C9
:102B0000D82F60EA71E084E092E00E94B5084AE0C4
:102B100050E06D2F84E092E00E94190ADC1738F52E
:102B200060EB71E084E092E00E94F10940E060E037
:102B300081E894E050DE64EB71E081E894E00E946B
:102B4000B50841E060E081E894E045DE61EC71E0C9
:102B500081E894E00E94B5084AE050E06C2F81E8DB
:102B600094E00E94E9086C2F80E090E001D76BE7C9
:102B700071E084E092E00E94F1096AE771E084E08C
:102B800092E0DF91CF910C94F1096AEC71E084E05E
:102B900092E0DF91CF910C94B5088F92AF92CF92D3
:102BA000EF920F938BDF812CA12CC12CE12C00E044
:102BB00025E042E050E064E670E083E794E00E94A4
:102BC000630B0F91EF90CF90AF908F905FCFCF922C
:102BD000DF92EF920F931F93CF93DF9380EEC82E77
:102BE00082E0D82EC0E0D0E01DEC609170047091BE
:102BF0007104C617D707ECF49B012C1B3D0B215029
:102C00003109129FC001139F900D1124CBD102E313
:102C1000060FF6014281538160817181E12C20E031
:102C200083E794E00E94350C2196F4E0CF0ED11C8E
:102C3000DCCFDF91CF911F910F91EF90DF90CF907C
:102C40000895EF920F93ECEDF2E0428153816081A1
:102C50007181E12C00E02FEF83E794E00E94350CB6
:102C60000F91EF90089583E794E019D8B0DFE9DF82
:102C700083E794E00C94590CCF92EF920F9387E086
:102C8000C82E96E0E92E05E024E043E062E081E80A
:102C900094E054DE83E794E00F91EF90CF900C9492
:102CA000F80BEF92FF920F931F93CF93DF93C1E046
:102CB000D0E002E010E083E0E82EF12C84E092E026
:102CC0000E942805892B11F184E092E00E94710591
:102CD00010927204823429F4F0928004E0927F040E
:102CE000EDCF883529F41093800400937F04E6CF5C
:102CF000813429F4D0938004C0937F04DFCF8935D9
:102D0000E9F61092800410927F04D8CFDF91CF9122
:102D10001F910F91FF90EF900895CF92DF92EF9265
:102D2000FF927C010E944D019B01AC012E0D3F1DC5
:102D3000411D511D69017A010E944D016C157D05EF
:102D40008E059F0540F4ADDF65E070E080E090E027
:102D50000E94C901F1CFFF90EF90DF90CF900895CE
:102D60000F931F93CF93DF9380917204811190C0D2
:102D70000091E0021091E102C091E202D091E302E1
:102D800080917F04909180048130910569F024F452
:102D9000892B71F421970CC08230910539F003978B
:102DA00039F40F5F1F4F04C0219602C00150110972
:102DB0008091DC029091DD023091700420917104C9
:102DC0000817190739F58091DE029091DF02C817C4
:102DD000D90701F5832F922F9C012F5F3F4F30932E
:102DE000710420937004FC01EE0FFF1FEE0FFF1F14
:102DF000E052FD4F349797FD0AC001972081318141
:102E0000358324832281338137832683F3CFBADD50
:102E100010DE17C0832F922FFC01EE0FFF1FEE0F65
:102E2000FF1FE852FD4F01971816190654F4208130
:102E300031813583248322813381378326833497FC
:102E4000F2CF1093E1020093E002D093E302C0932B
:102E5000E2022091700430917104E0EEF2E081E032
:102E600090E0821793076CF4448155814017510715
:102E700029F4468157814C175D0741F0019634963D
:102E8000F0CF0A30110510F42A9708F086DEEBDE49
:102E90008091080190910901DF91CF911F910F91CD
:102EA0003CCFCF93DF93CDB7DEB72C970FB6F89416
:102EB000DEBF0FBECDBF20E042E060E181E894E0DC
:102EC000A3DC26E040E052EC61E070E084E092E0B8
:102ED0000E947C0421E04AE050E06AE070E0CE010C
:102EE00001960E947D0CE3E7F4E08B819C81938343
:102EF00082838D819E81958384838F81988597833A
:102F0000868389859A85918780878B859C85938721
:102F10008287CE0101960E94DF0B4AE061E083E7E1
:102F200094E00E94360DB2DD84DD2C960FB6F89445
:102F3000DEBF0FBECDBFDF91CF91089583E794E050
:102F40000C94DF0B81E090E0F89420C5FC01019027
:102F50000020E9F7809590958E0F9F1F0895DB0163
:102F60008F939F9376D0BF91AF91A29F800D911DBB
:102F7000A39F900DB29F900D11240895AA1BBB1B17
:102F800051E107C0AA1FBB1FA617B70710F0A61B69
:102F9000B70B881F991F5A95A9F780959095BC018A
:102FA000CD01089597FB072E16F4009406D077FD07
:102FB00008D0E4DF07FC05D03EF4909581959F4F43
:102FC0000895709561957F4F0895A1E21A2EAA1B6E
:102FD000BB1BFD010DC0AA1FBB1FEE1FFF1FA217C9
:102FE000B307E407F50720F0A21BB30BE40BF50BC6
:102FF000661F771F881F991F1A9469F7609570954F
:10300000809590959B01AC01BD01CF010895052EDF
:1030100097FB16F400940FD057FD05D0D6DF07FCC0
:1030200002D046F408C050954095309521953F4F09
:103030004F4F5F4F089590958095709561957F4FA4
:103040008F4F9F4F089515D0B7FF0895821B930BA4
:1030500008950FD0A59F900DB49F900DA49F800D53
:10306000911D11240895EE0FFF1F0590F491E02D9E
:103070000994A29FB001B39FC001A39F700D811D51
:103080001124911DB29F700D811D1124911D089571
:103090005058BB27AA270ED09EC18FD130F094D1B3
:1030A00020F031F49F3F11F41EF45FC10EF4E0955F
:1030B000E7FB55C1E92FA0D180F3BA176207730768
:1030C0008407950718F071F49EF5B8C10EF4E095E9
:1030D0000B2EBA2FA02D0B01B90190010C01CA01D2
:1030E000A0011124FF27591B99F0593F50F4503E7D
:1030F00068F11A16F040A22F232F342F4427585F6F
:10310000F3CF469537952795A795F0405395C9F786
:103110007EF41F16BA0B620B730B840BBAF091503E
:10312000A1F0FF0FBB1F661F771F881FC2F70EC0DD
:10313000BA0F621F731F841F48F4879577956795B0
:10314000B795F7959E3F08F0B3CF9395880F08F099
:103150009927EE0F9795879508950CD03CC134D1EF
:1031600040F02BD130F021F45F3F19F0F8C051113D
:1031700066C1FBC041D198F39923C9F35523B1F33C
:10318000951B550BBB27AA2762177307840738F0D6
:103190009F5F5F4F220F331F441FAA1FA9F333D035
:1031A0000E2E3AF0E0E830D091505040E695001CE9
:1031B000CAF729D0FE2F27D0660F771F881FBB1FA5
:1031C000261737074807AB07B0E809F0BB0B802D7F
:1031D000BF01FF2793585F4F2AF09E3F510568F0CB
:1031E000BEC02DC15F3FECF3983EDCF3869577952A
:1031F0006795B795F7959F5FC9F7880F911D9695CD
:10320000879597F90895E1E0660F771F881FBB1F28
:10321000621773078407BA0720F0621B730B840BD5
:10322000BA0BEE1F88F7E095089519F40EF097C0D9
:1032300005C19BC0E9D0C8F39638C0F707F80F92D4
:10324000E8942BE33AEA48EB5FE7C6D10F920F927E
:103250000F924DB75EB70F927ED1E8E6F0E088D0CE
:103260004F915F91EF91FF91E595EE1FFF1F49F0A0
:10327000FE57E0684427EE0F441FFA95E1F74195A9
:10328000550BF0D00F9007FEE4C00895BDD088F034
:103290009F5790F0B92F9927B751A0F0D1F0660F42
:1032A000771F881F991F1AF0BA95C9F712C0B1305D
:1032B00081F0C4D0B1E00895C1C0672F782F88276E
:1032C000B85F39F0B93FCCF3869577956795B3959C
:1032D000D9F73EF490958095709561957F4F8F4F0B
:1032E0009F4F0895E89409C097FB3EF49095809510
:1032F000709561957F4F8F4F9F4F9923A9F0F92FBC
:1033000096E9BB279395F695879577956795B79539
:10331000F111F8CFFAF4BB0F11F460FF1BC06F5F1F
:103320007F4F8F4F9F4F16C0882311F096E911C031
:10333000772321F09EE8872F762F05C0662371F052
:1033400096E8862F70E060E02AF09A95660F771F66
:10335000881FDAF7880F9695879597F9089597F95A
:103360009F6780E870E060E008959FEF80EC08952B
:10337000DF93CF931F930F93FF92EF92DF927B0126
:103380008C01689405C0DA2EEF0124D1FE01E89487
:10339000A5912591359145915591AEF3EF018ADEC6
:1033A000FE019701A801DA9479F7DF90EF90FF9082
:1033B0000F911F91CF91DF91089500240A94161662
:1033C000170618060906089500240A941216130613
:1033D000140605060895092E0394000C11F48823A1
:1033E00052F0BB0F40F4BF2B11F460FF04C06F5FBD
:1033F0007F4F8F4F9F4F089557FD9058440F551F93
:1034000059F05F3F71F04795880F97FB991F61F066
:103410009F3F79F087950895121613061406551FDD
:10342000F2CF4695F1DF08C0161617061806991F49
:10343000F1CF86957105610508940895E894BB273E
:1034400066277727CB0197F908951BD108F48FEFF2
:1034500008959B01AC0160E070E080E89FE37DCEC1
:103460007ECF33C1D1DFE8F39923D9F3940F511DF7
:10347000BBF39150504094F059F0882332F0660F1E
:10348000771F881F91505040C1F79E3F510544F768
:10349000880F911D9695879597F908955F3FACF039
:1034A000983E9CF0BB27869577956795B79508F46D
:1034B000B1609395C1F7BB0F58F711F460FFE8CFE7
:1034C0006F5F7F4F8F4F9F4FE3CFB9CF0EF0FDC09F
:1034D0004CCF689444CF98DFC8F39923D1F3C6F357
:1034E000DF93CF931F930F93FF92C92FDD2788237C
:1034F0002AF02197660F771F881FDAF720E030E067
:1035000040E85FEB9FE3883920F0803E30F0219661
:103510008F77BFDDE0E9F0E003C0BBDDEDEBF0E06D
:1035200027DF8B01BE01EC01FB2E6F5771097595EA
:10353000771F880B990BD8DE28E132E741E35FE380
:1035400049D0AF2D9801AE01FF900F911F91CF91FF
:10355000DF91B0DD40CFFA01DC01AA0FBB1F9B0158
:10356000AC01BF5728F422273327442750781FC0C7
:10357000B75188F4AB2F0024469537952795011C49
:10358000A395D2F3002069F0220F331F441FB39597
:10359000DAF30DD07DCD61307105A0E88A07B94618
:1035A00030F49B01AC016627772788279078309606
:1035B00021F0208331834283538308950BD00BCFB6
:1035C000FCDE28F001DF18F0952309F0C8CECDCE3F
:1035D000112435CF11DFA0F3959FD1F3950F50E063
:1035E000551F629FF001729FBB27F00DB11D639FB5
:1035F000AA27F00DB11DAA1F649F6627B00DA11D5B
:10360000661F829F2227B00DA11D621F739FB00D00
:10361000A11D621F839FA00D611D221F749F332770
:10362000A00D611D231F849F600D211D822F762F09
:103630006A2F11249F5750408AF0E1F088234AF006
:10364000EE0FFF1FBB1F661F771F881F9150504052
:10365000A9F79E3F510570F082CEF1CE5F3FECF3AB
:10366000983EDCF3869577956795B795F795E7953E
:103670009F5FC1F7FE2B880F911D9695879597F94F
:103680000895990F0008550FAA0BE0E8FEEF1616F3
:103690001706E807F907C0F012161306E407F50746
:1036A00098F0621B730B840B950B39F40A2661F0BA
:1036B000232B242B252B21F408950A2609F4A1405D
:1036C000A6958FEF811D811D08959F3F31F0915088
:1036D00020F4879577956795B795880F911D9695F6
:1036E000879597F90895CF93DF938230910510F471
:1036F00082E090E0E0919B04F0919C0420E030E0B7
:10370000C0E0D0E0309711F140815181481759074E
:10371000C0F04817590761F482819381209719F00E
:103720009B838A832BC090939C0480939B0426C028
:103730002115310519F04217530718F49A01BE01FB
:10374000DF01EF010280F381E02DDCCF211531058F
:1037500009F1281B390B2430310590F412968D9114
:103760009C9113976115710521F0FB01938382836E
:1037700004C090939C0480939B04FD01329644C046
:10378000FD01E20FF31F81939193225031092D9394
:103790003C933AC02091990430919A04232B41F430
:1037A000209102013091030130939A0420939904EF
:1037B00020910001309101012115310541F42DB70F
:1037C0003EB74091040150910501241B350BE09157
:1037D0009904F0919A04E217F307A0F42E1B3F0B13
:1037E0002817390778F0AC014E5F5F4F2417350773
:1037F00048F04E0F5F1F50939A04409399048193B1
:10380000919302C0E0E0F0E0CF01DF91CF91089505
:103810000F931F93CF93DF93009709F48CC0FC01A3
:1038200032971382128200919B0410919C0401151F
:10383000110581F420813181820F931F2091990419
:1038400030919A042817390779F5F0939A04E09398
:10385000990471C0D80140E050E0AE17BF0750F4A2
:1038600012962D913C911397AD012115310509F167
:10387000D901F3CF9D01DA01338322836081718105
:10388000860F971F8217930769F4EC01288139810D
:10389000260F371F2E5F3F4F318320838A819B8104
:1038A00093838283452B29F4F0939C04E0939B043B
:1038B00042C01396FC93EE931297ED0149915991F2
:1038C0009E01240F351FE217F30771F48081918167
:1038D000840F951F029611969C938E9382819381FB
:1038E00013969C938E931297E0E0F0E0D801129625
:1038F0008D919C911397009719F0F8018C01F6CFE8
:103900008D919C9198012E5F3F4F820F931F2091C4
:10391000990430919A042817390769F4309729F4EB
:1039200010929C0410929B0402C013821282109386
:103930009A0400939904DF91CF911F910F910895FC
:10394000FB01DC0102C001900D9241505040D8F7BC
:103950000895DC0101C06D9341505040E0F7089597
:10396000F999FECF92BD81BDF89A992780B5089547
:10397000262FF999FECF1FBA92BD81BD20BD0FB68B
:10398000F894FA9AF99A0FBE0196089510E0C5EAE4
:10399000D0E003C0FE0167DB2196C63AD107D1F71C
:0439A000F894FFCFC9
:1039A40000009D0480003905640004000400050043
:1039B4000400060004000400050000000000F205F5
:1039C4006908A805DD052805710549050000000002
:1039D4002B0B6908E806F6062B0B2B0B2B0B0D0A99
:1039E40000000000002B0B6908E806F60600000042
:1039F40000DF0BF00B000000000B115411DD0BB6BF
:103A04000BB20BDA0B411000000000BD14690873FF
:103A1400636F72653A2020202020003D3D3D3D3DEE
:103A24003D3D3D3D3D3D3D3D3D3D3D3D3D3D3D3DC2
:103A34003D3D3D3D3D3D3D0053636F72653A200081
:103A44006F6C64206869676873636F72653A2000FD
:103A54004E4557204849474853434F524521212159
:103A64000073636F7265203D20004552524F52200F
:103A7400434F554C44204E4F5420534156452053F8
:103A8400434F52452E2053434F524520495320471C
:103A9400524541544552205448454E203235360053
:00000001FF
